{
  "contractName": "FoxEnd",
  "abi": [
    {
      "inputs": [],
      "stateMutability": "nonpayable",
      "type": "constructor"
    },
    {
      "inputs": [],
      "name": "highestValue",
      "outputs": [
        {
          "internalType": "uint256",
          "name": "",
          "type": "uint256"
        }
      ],
      "stateMutability": "view",
      "type": "function",
      "constant": true
    },
    {
      "inputs": [],
      "name": "lowestValue",
      "outputs": [
        {
          "internalType": "uint256",
          "name": "",
          "type": "uint256"
        }
      ],
      "stateMutability": "view",
      "type": "function",
      "constant": true
    },
    {
      "inputs": [],
      "name": "name",
      "outputs": [
        {
          "internalType": "string",
          "name": "",
          "type": "string"
        }
      ],
      "stateMutability": "view",
      "type": "function",
      "constant": true
    },
    {
      "inputs": [],
      "name": "owner",
      "outputs": [
        {
          "internalType": "address",
          "name": "",
          "type": "address"
        }
      ],
      "stateMutability": "view",
      "type": "function",
      "constant": true
    },
    {
      "inputs": [
        {
          "internalType": "uint256",
          "name": "",
          "type": "uint256"
        }
      ],
      "name": "players",
      "outputs": [
        {
          "internalType": "address payable",
          "name": "addr",
          "type": "address"
        },
        {
          "internalType": "string",
          "name": "pName",
          "type": "string"
        },
        {
          "internalType": "uint256",
          "name": "pValue",
          "type": "uint256"
        }
      ],
      "stateMutability": "view",
      "type": "function",
      "constant": true
    },
    {
      "inputs": [],
      "name": "value",
      "outputs": [
        {
          "internalType": "uint256",
          "name": "",
          "type": "uint256"
        }
      ],
      "stateMutability": "view",
      "type": "function",
      "constant": true
    },
    {
      "inputs": [
        {
          "internalType": "uint256",
          "name": "",
          "type": "uint256"
        }
      ],
      "name": "winners",
      "outputs": [
        {
          "internalType": "string",
          "name": "pName",
          "type": "string"
        },
        {
          "internalType": "uint256",
          "name": "pValue",
          "type": "uint256"
        }
      ],
      "stateMutability": "view",
      "type": "function",
      "constant": true
    },
    {
      "inputs": [],
      "name": "withdrawFees",
      "outputs": [],
      "stateMutability": "nonpayable",
      "type": "function"
    },
    {
      "inputs": [
        {
          "internalType": "string",
          "name": "pName",
          "type": "string"
        },
        {
          "internalType": "uint256",
          "name": "pValue",
          "type": "uint256"
        }
      ],
      "name": "join",
      "outputs": [],
      "stateMutability": "payable",
      "type": "function",
      "payable": true
    },
    {
      "inputs": [],
      "name": "getPlayers",
      "outputs": [
        {
          "components": [
            {
              "internalType": "address payable",
              "name": "addr",
              "type": "address"
            },
            {
              "internalType": "string",
              "name": "pName",
              "type": "string"
            },
            {
              "internalType": "uint256",
              "name": "pValue",
              "type": "uint256"
            }
          ],
          "internalType": "struct FoxEnd.Player[]",
          "name": "",
          "type": "tuple[]"
        }
      ],
      "stateMutability": "view",
      "type": "function",
      "constant": true
    },
    {
      "inputs": [],
      "name": "getWinner",
      "outputs": [
        {
          "components": [
            {
              "internalType": "string",
              "name": "pName",
              "type": "string"
            },
            {
              "internalType": "uint256",
              "name": "pValue",
              "type": "uint256"
            }
          ],
          "internalType": "struct FoxEnd.Winner[]",
          "name": "",
          "type": "tuple[]"
        }
      ],
      "stateMutability": "view",
      "type": "function",
      "constant": true
    },
    {
      "inputs": [],
      "name": "newGame",
      "outputs": [],
      "stateMutability": "nonpayable",
      "type": "function"
    }
  ],
  "bytecode": "0x6080604052606460045534801561001557600080fd5b50336000806101000a81548173ffffffffffffffffffffffffffffffffffffffff021916908373ffffffffffffffffffffffffffffffffffffffff16021790555061181c806100656000396000f3fe6080604052600436106100a75760003560e01c80638b5b9ccc116100645780638b5b9ccc146101865780638da5cb5b146101b15780638e7ea5b2146101dc57806399b3236014610207578063a2fb117514610223578063f71d96cb14610261576100a7565b806306fdde03146100ac5780632b147685146100d75780633fa4f24514610102578063476343ee1461012d5780637d03f5f3146101445780637df5f6791461015b575b600080fd5b3480156100b857600080fd5b506100c16102a0565b6040516100ce9190610d5f565b60405180910390f35b3480156100e357600080fd5b506100ec61032e565b6040516100f99190610d9a565b60405180910390f35b34801561010e57600080fd5b50610117610334565b6040516101249190610d9a565b60405180910390f35b34801561013957600080fd5b5061014261033a565b005b34801561015057600080fd5b50610159610431565b005b34801561016757600080fd5b5061017061045f565b60405161017d9190610d9a565b60405180910390f35b34801561019257600080fd5b5061019b610465565b6040516101a89190610f61565b60405180910390f35b3480156101bd57600080fd5b506101c66105b6565b6040516101d39190610fa4565b60405180910390f35b3480156101e857600080fd5b506101f16105da565b6040516101fe91906110be565b60405180910390f35b610221600480360381019061021c9190611255565b6106e8565b005b34801561022f57600080fd5b5061024a600480360381019061024591906112b1565b610952565b6040516102589291906112de565b60405180910390f35b34801561026d57600080fd5b50610288600480360381019061028391906112b1565b610a0e565b6040516102979392919061131d565b60405180910390f35b600180546102ad9061138a565b80601f01602080910402602001604051908101604052809291908181526020018280546102d99061138a565b80156103265780601f106102fb57610100808354040283529160200191610326565b820191906000526020600020905b81548152906001019060200180831161030957829003601f168201915b505050505081565b60035481565b60025481565b60008054906101000a900473ffffffffffffffffffffffffffffffffffffffff1673ffffffffffffffffffffffffffffffffffffffff163373ffffffffffffffffffffffffffffffffffffffff16146103c8576040517f08c379a00000000000000000000000000000000000000000000000000000000081526004016103bf90611407565b60405180910390fd5b60008054906101000a900473ffffffffffffffffffffffffffffffffffffffff1673ffffffffffffffffffffffffffffffffffffffff166108fc479081150290604051600060405180830381858888f1935050505015801561042e573d6000803e3d6000fd5b50565b6005600061043f9190610ba5565b6006600061044d9190610bc9565b60006003819055506064600481905550565b60045481565b60606005805480602002602001604051908101604052809291908181526020016000905b828210156105ad57838290600052602060002090600302016040518060600160405290816000820160009054906101000a900473ffffffffffffffffffffffffffffffffffffffff1673ffffffffffffffffffffffffffffffffffffffff1673ffffffffffffffffffffffffffffffffffffffff1681526020016001820180546105129061138a565b80601f016020809104026020016040519081016040528092919081815260200182805461053e9061138a565b801561058b5780601f106105605761010080835404028352916020019161058b565b820191906000526020600020905b81548152906001019060200180831161056e57829003601f168201915b5050505050815260200160028201548152505081526020019060010190610489565b50505050905090565b60008054906101000a900473ffffffffffffffffffffffffffffffffffffffff1681565b6060600260058054905010156105ef57600080fd5b6006805480602002602001604051908101604052809291908181526020016000905b828210156106df57838290600052602060002090600202016040518060400160405290816000820180546106449061138a565b80601f01602080910402602001604051908101604052809291908181526020018280546106709061138a565b80156106bd5780601f10610692576101008083540402835291602001916106bd565b820191906000526020600020905b8154815290600101906020018083116106a057829003601f168201915b5050505050815260200160018201548152505081526020019060010190610611565b50505050905090565b662386f26fc10000341180156107055750670e92596fd629000034105b610744576040517f08c379a000000000000000000000000000000000000000000000000000000000815260040161073b90611473565b60405180910390fd5b61074d33610af0565b1561075757600080fd5b60035481106108835780600381905550600060058054905014158061078157506001600680549050115b156107ce57600680548061079857610797611493565b5b6001900381819060005260206000209060020201600080820160006107bd9190610bed565b60018201600090555050905561081a565b600060068054905011156108195760066000815481106107f1576107f06114c2565b5b906000526020600020906002020160010154810361081857600660006108179190610bc9565b5b5b5b6000604051806040016040528084815260200183815250905060068190806001815401808255809150506001900390600052602060002090600202016000909190919091506000820151816000019081610874919061169d565b50602082015181600101555050505b600060405180606001604052803373ffffffffffffffffffffffffffffffffffffffff168152602001848152602001838152509050600581908060018154018082558091505060019003906000526020600020906003020160009091909190915060008201518160000160006101000a81548173ffffffffffffffffffffffffffffffffffffffff021916908373ffffffffffffffffffffffffffffffffffffffff1602179055506020820151816001019081610940919061169d565b50604082015181600201555050505050565b6006818154811061096257600080fd5b90600052602060002090600202016000915090508060000180546109859061138a565b80601f01602080910402602001604051908101604052809291908181526020018280546109b19061138a565b80156109fe5780601f106109d3576101008083540402835291602001916109fe565b820191906000526020600020905b8154815290600101906020018083116109e157829003601f168201915b5050505050908060010154905082565b60058181548110610a1e57600080fd5b90600052602060002090600302016000915090508060000160009054906101000a900473ffffffffffffffffffffffffffffffffffffffff1690806001018054610a679061138a565b80601f0160208091040260200160405190810160405280929190818152602001828054610a939061138a565b8015610ae05780601f10610ab557610100808354040283529160200191610ae0565b820191906000526020600020905b815481529060010190602001808311610ac357829003601f168201915b5050505050908060020154905083565b600080600090505b600580549050811015610b9a578273ffffffffffffffffffffffffffffffffffffffff1660058281548110610b3057610b2f6114c2565b5b906000526020600020906003020160000160009054906101000a900473ffffffffffffffffffffffffffffffffffffffff1673ffffffffffffffffffffffffffffffffffffffff1603610b87576001915050610ba0565b8080610b929061179e565b915050610af8565b50600090505b919050565b5080546000825560030290600052602060002090810190610bc69190610c2d565b50565b5080546000825560020290600052602060002090810190610bea9190610c83565b50565b508054610bf99061138a565b6000825580601f10610c0b5750610c2a565b601f016020900490600052602060002090810190610c299190610cb2565b5b50565b5b80821115610c7f57600080820160006101000a81549073ffffffffffffffffffffffffffffffffffffffff0219169055600182016000610c6e9190610bed565b600282016000905550600301610c2e565b5090565b5b80821115610cae5760008082016000610c9d9190610bed565b600182016000905550600201610c84565b5090565b5b80821115610ccb576000816000905550600101610cb3565b5090565b600081519050919050565b600082825260208201905092915050565b60005b83811015610d09578082015181840152602081019050610cee565b60008484015250505050565b6000601f19601f8301169050919050565b6000610d3182610ccf565b610d3b8185610cda565b9350610d4b818560208601610ceb565b610d5481610d15565b840191505092915050565b60006020820190508181036000830152610d798184610d26565b905092915050565b6000819050919050565b610d9481610d81565b82525050565b6000602082019050610daf6000830184610d8b565b92915050565b600081519050919050565b600082825260208201905092915050565b6000819050602082019050919050565b600073ffffffffffffffffffffffffffffffffffffffff82169050919050565b6000610e0c82610de1565b9050919050565b610e1c81610e01565b82525050565b600082825260208201905092915050565b6000610e3e82610ccf565b610e488185610e22565b9350610e58818560208601610ceb565b610e6181610d15565b840191505092915050565b610e7581610d81565b82525050565b6000606083016000830151610e936000860182610e13565b5060208301518482036020860152610eab8282610e33565b9150506040830151610ec06040860182610e6c565b508091505092915050565b6000610ed78383610e7b565b905092915050565b6000602082019050919050565b6000610ef782610db5565b610f018185610dc0565b935083602082028501610f1385610dd1565b8060005b85811015610f4f5784840389528151610f308582610ecb565b9450610f3b83610edf565b925060208a01995050600181019050610f17565b50829750879550505050505092915050565b60006020820190508181036000830152610f7b8184610eec565b905092915050565b6000610f8e82610de1565b9050919050565b610f9e81610f83565b82525050565b6000602082019050610fb96000830184610f95565b92915050565b600081519050919050565b600082825260208201905092915050565b6000819050602082019050919050565b600060408301600083015184820360008601526110088282610e33565b915050602083015161101d6020860182610e6c565b508091505092915050565b60006110348383610feb565b905092915050565b6000602082019050919050565b600061105482610fbf565b61105e8185610fca565b93508360208202850161107085610fdb565b8060005b858110156110ac578484038952815161108d8582611028565b94506110988361103c565b925060208a01995050600181019050611074565b50829750879550505050505092915050565b600060208201905081810360008301526110d88184611049565b905092915050565b6000604051905090565b600080fd5b600080fd5b600080fd5b600080fd5b7f4e487b7100000000000000000000000000000000000000000000000000000000600052604160045260246000fd5b61113682610d15565b810181811067ffffffffffffffff82111715611155576111546110fe565b5b80604052505050565b60006111686110e0565b9050611174828261112d565b919050565b600067ffffffffffffffff821115611194576111936110fe565b5b61119d82610d15565b9050602081019050919050565b82818337600083830152505050565b60006111cc6111c784611179565b61115e565b9050828152602081018484840111156111e8576111e76110f9565b5b6111f38482856111aa565b509392505050565b600082601f8301126112105761120f6110f4565b5b81356112208482602086016111b9565b91505092915050565b61123281610d81565b811461123d57600080fd5b50565b60008135905061124f81611229565b92915050565b6000806040838503121561126c5761126b6110ea565b5b600083013567ffffffffffffffff81111561128a576112896110ef565b5b611296858286016111fb565b92505060206112a785828601611240565b9150509250929050565b6000602082840312156112c7576112c66110ea565b5b60006112d584828501611240565b91505092915050565b600060408201905081810360008301526112f88185610d26565b90506113076020830184610d8b565b9392505050565b61131781610e01565b82525050565b6000606082019050611332600083018661130e565b81810360208301526113448185610d26565b90506113536040830184610d8b565b949350505050565b7f4e487b7100000000000000000000000000000000000000000000000000000000600052602260045260246000fd5b600060028204905060018216806113a257607f821691505b6020821081036113b5576113b461135b565b5b50919050565b7f4f6e6c7920746865206f776e65722063616e2077697468647261772066656573600082015250565b60006113f1602083610cda565b91506113fc826113bb565b602082019050919050565b60006020820190508181036000830152611420816113e4565b9050919050565b7f496e76616c696420657468657220616d6f756e74000000000000000000000000600082015250565b600061145d601483610cda565b915061146882611427565b602082019050919050565b6000602082019050818103600083015261148c81611450565b9050919050565b7f4e487b7100000000000000000000000000000000000000000000000000000000600052603160045260246000fd5b7f4e487b7100000000000000000000000000000000000000000000000000000000600052603260045260246000fd5b60008190508160005260206000209050919050565b60006020601f8301049050919050565b600082821b905092915050565b6000600883026115537fffffffffffffffffffffffffffffffffffffffffffffffffffffffffffffffff82611516565b61155d8683611516565b95508019841693508086168417925050509392505050565b6000819050919050565b600061159a61159561159084610d81565b611575565b610d81565b9050919050565b6000819050919050565b6115b48361157f565b6115c86115c0826115a1565b848454611523565b825550505050565b600090565b6115dd6115d0565b6115e88184846115ab565b505050565b5b8181101561160c576116016000826115d5565b6001810190506115ee565b5050565b601f82111561165157611622816114f1565b61162b84611506565b8101602085101561163a578190505b61164e61164685611506565b8301826115ed565b50505b505050565b600082821c905092915050565b600061167460001984600802611656565b1980831691505092915050565b600061168d8383611663565b9150826002028217905092915050565b6116a682610ccf565b67ffffffffffffffff8111156116bf576116be6110fe565b5b6116c9825461138a565b6116d4828285611610565b600060209050601f83116001811461170757600084156116f5578287015190505b6116ff8582611681565b865550611767565b601f198416611715866114f1565b60005b8281101561173d57848901518255600182019150602085019450602081019050611718565b8683101561175a5784890151611756601f891682611663565b8355505b6001600288020188555050505b505050505050565b7f4e487b7100000000000000000000000000000000000000000000000000000000600052601160045260246000fd5b60006117a982610d81565b91507fffffffffffffffffffffffffffffffffffffffffffffffffffffffffffffffff82036117db576117da61176f565b5b60018201905091905056fea2646970667358221220f10f882e699474e01b32b29774bd6307816e5970a8953f8d504a2482e89bbb4064736f6c63430008110033",
  "immutableReferences": {},
  "source": "// SPDX-License-Identifier: MIT\npragma solidity >=0.4.22 <0.9.0;\n\ncontract FoxEnd {\n    address public owner;\n\n    constructor() {\n        owner = msg.sender;\n    }\n\n    function withdrawFees() public {\n        require(msg.sender == owner, \"Only the owner can withdraw fees\");\n        payable(owner).transfer(address(this).balance);\n    }\n\n    string public name;\n    uint public value;\n\n    struct Player {\n        address payable addr;\n        string pName;\n        uint pValue;\n    }\n    struct Winner {\n        string pName;\n        uint pValue;\n    }\n\n    uint256 public highestValue;\n    uint256 public lowestValue = 100;\n    Player[] public players;\n    Winner[] public winners;\n\n    function join(string memory pName, uint pValue) external payable {\n        require(\n            msg.value > 0.01 ether && msg.value < 1.05 ether,\n            \"Invalid ether amount\"\n        );\n        require(!isPlayerJoined(msg.sender));\n\n        if (pValue >= highestValue) {\n            highestValue = pValue;\n\n            if (players.length != 0 || winners.length > 1) {\n                winners.pop();\n            } else if (winners.length > 0) {\n                if (pValue == winners[0].pValue) {\n                    delete winners;\n                }\n            }\n            Winner memory newWinner = Winner({pName: pName, pValue: pValue});\n            winners.push(newWinner);\n        }\n\n        Player memory newPlayer = Player({\n            addr: payable(msg.sender),\n            pName: pName,\n            pValue: pValue\n        });\n\n        players.push(newPlayer);\n    }\n\n    function getPlayers() public view returns (Player[] memory) {\n        return players;\n    }\n\n    function getWinner() public view returns (Winner[] memory) {\n        require(players.length >= 2);\n        return winners;\n    }\n\n    function newGame() public {\n        delete players;\n        delete winners;\n        highestValue = 0;\n        lowestValue = 100;\n    }\n\n    function isPlayerJoined(address _addr) internal view returns (bool) {\n        for (uint256 i = 0; i < players.length; i++) {\n            if (players[i].addr == _addr) {\n                return true;\n            }\n        }\n        return false;\n    }\n}\n\n// const abi = require(\"./build/contracts/FoxEnd.json\");\n// var join_instance = new web3.eth.Contract(abi['abi'],\"0x301287848FEB0C744B4cCF2449a06f6C4984C295\")\n// join_instance.methods.join('Matthias', 1).send({from: '0xcDfafd5f231a44122FAaf2AeE5ed4e5E418D0805',value: web3.utils.toWei(\"0.02\")})\n// join_instance.methods.getPlayers().call()\n// join_instance.methods.contractBalance().call()\n\n// join_instance.methods.sayMessage().call()\n// 0xcDfafd5f231a44122FAaf2AeE5ed4e5E418D0805   --> MM\n// 0x83F55615168277a689B5963142c675533A974089   --> MM\n// wss://sepolia.infura.io/v3/4ac1f63261eb4847a8862944348d3272    --> sepolia key\n\n// 4ac1f63261eb4847a8862944348d3272\n//\n\n// const abi = require(\"./build/contracts/FoxEnd.json\");\n// var join_instance = new web3.eth.Contract(abi['abi'],\"0x301287848FEB0C744B4cCF2449a06f6C4984C295\")\n// join_instance.methods.join('Matthias', 1).send({from: '0xcDfafd5f231a44122FAaf2AeE5ed4e5E418D0805',value: web3.utils.toWei(\"0.01\")})\n// join_instance.methods.getPlayers().call()\n// join_instance.methods.contractBalance().call()\n//0xEb5655Ad63832018795570EB8359f419e8247F95\n",
  "sourcePath": "C:\\Users\\Erwin\\Desktop\\FHV_Matthias\\5.Semester\\Blockchain Technologie\\FoxEnd\\contracts\\FoxEnd.sol",
  "compiler": {
    "name": "solc",
    "version": "0.8.17+commit.8df45f5f.Emscripten.clang"
  },
  "schemaVersion": "3.4.16",
  "updatedAt": "2023-12-14T21:51:21.457Z",
  "networkType": "ethereum",
  "devdoc": {
    "kind": "dev",
    "methods": {},
    "version": 1
  },
  "userdoc": {
    "kind": "user",
    "methods": {},
    "version": 1
  }
}